{
  "contractName": "MatejSwap",
  "abi": [
    {
      "inputs": [
        {
          "internalType": "contract IFesbToken",
          "name": "token",
          "type": "address"
        }
      ],
      "stateMutability": "nonpayable",
      "type": "constructor"
    },
    {
      "anonymous": false,
      "inputs": [
        {
          "indexed": false,
          "internalType": "address",
          "name": "provider",
          "type": "address"
        },
        {
          "indexed": false,
          "internalType": "uint256",
          "name": "eth_amount",
          "type": "uint256"
        },
        {
          "indexed": false,
          "internalType": "uint256",
          "name": "token_amount",
          "type": "uint256"
        }
      ],
      "name": "AddLiquidity",
      "type": "event"
    },
    {
      "anonymous": false,
      "inputs": [
        {
          "indexed": true,
          "internalType": "address",
          "name": "owner",
          "type": "address"
        },
        {
          "indexed": true,
          "internalType": "address",
          "name": "spender",
          "type": "address"
        },
        {
          "indexed": false,
          "internalType": "uint256",
          "name": "value",
          "type": "uint256"
        }
      ],
      "name": "Approval",
      "type": "event"
    },
    {
      "anonymous": false,
      "inputs": [
        {
          "indexed": false,
          "internalType": "address",
          "name": "buyer",
          "type": "address"
        },
        {
          "indexed": false,
          "internalType": "uint256",
          "name": "tokens_sold",
          "type": "uint256"
        },
        {
          "indexed": false,
          "internalType": "uint256",
          "name": "eth_bought",
          "type": "uint256"
        }
      ],
      "name": "EthPurchase",
      "type": "event"
    },
    {
      "anonymous": false,
      "inputs": [
        {
          "indexed": false,
          "internalType": "address",
          "name": "",
          "type": "address"
        },
        {
          "indexed": false,
          "internalType": "uint256",
          "name": "",
          "type": "uint256"
        }
      ],
      "name": "Received",
      "type": "event"
    },
    {
      "anonymous": false,
      "inputs": [
        {
          "indexed": false,
          "internalType": "address",
          "name": "provider",
          "type": "address"
        },
        {
          "indexed": false,
          "internalType": "uint256",
          "name": "eth_amount",
          "type": "uint256"
        },
        {
          "indexed": false,
          "internalType": "uint256",
          "name": "token_amount",
          "type": "uint256"
        }
      ],
      "name": "RemoveLiquidity",
      "type": "event"
    },
    {
      "anonymous": false,
      "inputs": [
        {
          "indexed": false,
          "internalType": "address",
          "name": "buyer",
          "type": "address"
        },
        {
          "indexed": false,
          "internalType": "uint256",
          "name": "eth_sold",
          "type": "uint256"
        },
        {
          "indexed": false,
          "internalType": "uint256",
          "name": "tokens_bought",
          "type": "uint256"
        }
      ],
      "name": "TokenPurchase",
      "type": "event"
    },
    {
      "anonymous": false,
      "inputs": [
        {
          "indexed": true,
          "internalType": "address",
          "name": "from",
          "type": "address"
        },
        {
          "indexed": true,
          "internalType": "address",
          "name": "to",
          "type": "address"
        },
        {
          "indexed": false,
          "internalType": "uint256",
          "name": "value",
          "type": "uint256"
        }
      ],
      "name": "Transfer",
      "type": "event"
    },
    {
      "inputs": [],
      "name": "FesbToken",
      "outputs": [
        {
          "internalType": "contract IFesbToken",
          "name": "",
          "type": "address"
        }
      ],
      "stateMutability": "view",
      "type": "function",
      "constant": true
    },
    {
      "inputs": [
        {
          "internalType": "address",
          "name": "",
          "type": "address"
        },
        {
          "internalType": "address",
          "name": "",
          "type": "address"
        }
      ],
      "name": "allowance",
      "outputs": [
        {
          "internalType": "uint256",
          "name": "",
          "type": "uint256"
        }
      ],
      "stateMutability": "view",
      "type": "function",
      "constant": true
    },
    {
      "inputs": [
        {
          "internalType": "address",
          "name": "spender",
          "type": "address"
        },
        {
          "internalType": "uint256",
          "name": "value",
          "type": "uint256"
        }
      ],
      "name": "approve",
      "outputs": [
        {
          "internalType": "bool",
          "name": "",
          "type": "bool"
        }
      ],
      "stateMutability": "nonpayable",
      "type": "function"
    },
    {
      "inputs": [
        {
          "internalType": "address",
          "name": "",
          "type": "address"
        }
      ],
      "name": "balanceOf",
      "outputs": [
        {
          "internalType": "uint256",
          "name": "",
          "type": "uint256"
        }
      ],
      "stateMutability": "view",
      "type": "function",
      "constant": true
    },
    {
      "inputs": [],
      "name": "decimals",
      "outputs": [
        {
          "internalType": "uint8",
          "name": "",
          "type": "uint8"
        }
      ],
      "stateMutability": "view",
      "type": "function",
      "constant": true
    },
    {
      "inputs": [],
      "name": "name",
      "outputs": [
        {
          "internalType": "string",
          "name": "",
          "type": "string"
        }
      ],
      "stateMutability": "view",
      "type": "function",
      "constant": true
    },
    {
      "inputs": [],
      "name": "symbol",
      "outputs": [
        {
          "internalType": "string",
          "name": "",
          "type": "string"
        }
      ],
      "stateMutability": "view",
      "type": "function",
      "constant": true
    },
    {
      "inputs": [],
      "name": "totalSupply",
      "outputs": [
        {
          "internalType": "uint256",
          "name": "",
          "type": "uint256"
        }
      ],
      "stateMutability": "view",
      "type": "function",
      "constant": true
    },
    {
      "inputs": [
        {
          "internalType": "address",
          "name": "to",
          "type": "address"
        },
        {
          "internalType": "uint256",
          "name": "value",
          "type": "uint256"
        }
      ],
      "name": "transfer",
      "outputs": [
        {
          "internalType": "bool",
          "name": "",
          "type": "bool"
        }
      ],
      "stateMutability": "nonpayable",
      "type": "function"
    },
    {
      "inputs": [
        {
          "internalType": "address",
          "name": "from",
          "type": "address"
        },
        {
          "internalType": "address",
          "name": "to",
          "type": "address"
        },
        {
          "internalType": "uint256",
          "name": "value",
          "type": "uint256"
        }
      ],
      "name": "transferFrom",
      "outputs": [
        {
          "internalType": "bool",
          "name": "",
          "type": "bool"
        }
      ],
      "stateMutability": "nonpayable",
      "type": "function"
    },
    {
      "stateMutability": "payable",
      "type": "receive",
      "payable": true
    },
    {
      "inputs": [],
      "name": "buyFesbTokens",
      "outputs": [
        {
          "internalType": "uint256",
          "name": "",
          "type": "uint256"
        }
      ],
      "stateMutability": "payable",
      "type": "function",
      "payable": true
    },
    {
      "inputs": [
        {
          "internalType": "uint256",
          "name": "amountSent",
          "type": "uint256"
        },
        {
          "internalType": "address payable",
          "name": "recipient",
          "type": "address"
        }
      ],
      "name": "sellFesbTokens",
      "outputs": [
        {
          "internalType": "uint256",
          "name": "",
          "type": "uint256"
        }
      ],
      "stateMutability": "nonpayable",
      "type": "function"
    },
    {
      "inputs": [
        {
          "internalType": "uint256",
          "name": "amountSent",
          "type": "uint256"
        }
      ],
      "name": "provideLiquidity",
      "outputs": [
        {
          "internalType": "uint256",
          "name": "",
          "type": "uint256"
        }
      ],
      "stateMutability": "payable",
      "type": "function",
      "payable": true
    },
    {
      "inputs": [
        {
          "internalType": "uint256",
          "name": "amount",
          "type": "uint256"
        },
        {
          "internalType": "address payable",
          "name": "recipient",
          "type": "address"
        }
      ],
      "name": "removeLiquidity",
      "outputs": [
        {
          "internalType": "uint256",
          "name": "",
          "type": "uint256"
        },
        {
          "internalType": "uint256",
          "name": "",
          "type": "uint256"
        }
      ],
      "stateMutability": "nonpayable",
      "type": "function"
    }
  ],
  "bytecode": "0x608060405234801561001057600080fd5b50604051611e20380380611e208339818101604052602081101561003357600080fd5b810190808051906020019092919050505080600360006101000a81548173ffffffffffffffffffffffffffffffffffffffff021916908373ffffffffffffffffffffffffffffffffffffffff16021790555050611d8b806100956000396000f3fe6080604052600436106100e15760003560e01c806370a082311161007f578063bef2c4f311610059578063bef2c4f314610546578063dd62ed3e146105b5578063eb521a4c1461063a578063fbe74beb1461067c57610153565b806370a08231146103de57806395d89b4114610443578063a9059cbb146104d357610153565b806318160ddd116100bb57806318160ddd146102d157806323b872dd146102fc578063313ce5671461038f578063380896a4146103c057610153565b806305fe138b1461015857806306fdde03146101ce578063095ea7b31461025e57610153565b36610153577f88a5966d370b9919b20f3e2c13ff65706f196a4e32cc2c12bf57088f885258743334604051808373ffffffffffffffffffffffffffffffffffffffff1673ffffffffffffffffffffffffffffffffffffffff1681526020018281526020019250505060405180910390a1005b600080fd5b34801561016457600080fd5b506101b16004803603604081101561017b57600080fd5b8101908080359060200190929190803573ffffffffffffffffffffffffffffffffffffffff1690602001909291905050506106d3565b604051808381526020018281526020019250505060405180910390f35b3480156101da57600080fd5b506101e3610a4e565b6040518080602001828103825283818151815260200191508051906020019080838360005b83811015610223578082015181840152602081019050610208565b50505050905090810190601f1680156102505780820380516001836020036101000a031916815260200191505b509250505060405180910390f35b34801561026a57600080fd5b506102b76004803603604081101561028157600080fd5b81019080803573ffffffffffffffffffffffffffffffffffffffff16906020019092919080359060200190929190505050610a87565b604051808215151515815260200191505060405180910390f35b3480156102dd57600080fd5b506102e6610a9e565b6040518082815260200191505060405180910390f35b34801561030857600080fd5b506103756004803603606081101561031f57600080fd5b81019080803573ffffffffffffffffffffffffffffffffffffffff169060200190929190803573ffffffffffffffffffffffffffffffffffffffff16906020019092919080359060200190929190505050610aa4565b604051808215151515815260200191505060405180910390f35b34801561039b57600080fd5b506103a4610bcb565b604051808260ff1660ff16815260200191505060405180910390f35b6103c8610bd0565b6040518082815260200191505060405180910390f35b3480156103ea57600080fd5b5061042d6004803603602081101561040157600080fd5b81019080803573ffffffffffffffffffffffffffffffffffffffff169060200190929190505050610e9f565b6040518082815260200191505060405180910390f35b34801561044f57600080fd5b50610458610eb7565b6040518080602001828103825283818151815260200191508051906020019080838360005b8381101561049857808201518184015260208101905061047d565b50505050905090810190601f1680156104c55780820380516001836020036101000a031916815260200191505b509250505060405180910390f35b3480156104df57600080fd5b5061052c600480360360408110156104f657600080fd5b81019080803573ffffffffffffffffffffffffffffffffffffffff16906020019092919080359060200190929190505050610ef0565b604051808215151515815260200191505060405180910390f35b34801561055257600080fd5b5061059f6004803603604081101561056957600080fd5b8101908080359060200190929190803573ffffffffffffffffffffffffffffffffffffffff169060200190929190505050610f07565b6040518082815260200191505060405180910390f35b3480156105c157600080fd5b50610624600480360360408110156105d857600080fd5b81019080803573ffffffffffffffffffffffffffffffffffffffff169060200190929190803573ffffffffffffffffffffffffffffffffffffffff169060200190929190505050611335565b6040518082815260200191505060405180910390f35b6106666004803603602081101561065057600080fd5b810190808035906020019092919050505061135a565b6040518082815260200191505060405180910390f35b34801561068857600080fd5b506106916117dd565b604051808273ffffffffffffffffffffffffffffffffffffffff1673ffffffffffffffffffffffffffffffffffffffff16815260200191505060405180910390f35b600080600084116106e357600080fd5b600080549050600081116106f657600080fd5b6000600360009054906101000a900473ffffffffffffffffffffffffffffffffffffffff1673ffffffffffffffffffffffffffffffffffffffff166370a08231306040518263ffffffff1660e01b8152600401808273ffffffffffffffffffffffffffffffffffffffff1673ffffffffffffffffffffffffffffffffffffffff16815260200191505060206040518083038186803b15801561079757600080fd5b505afa1580156107ab573d6000803e3d6000fd5b505050506040513d60208110156107c157600080fd5b8101908080519060200190929190505050905060006107fb836107ed478a61180390919063ffffffff16565b61183d90919063ffffffff16565b9050600061082484610816858b61180390919063ffffffff16565b61183d90919063ffffffff16565b90506108303389611863565b8673ffffffffffffffffffffffffffffffffffffffff166108fc839081150290604051600060405180830381858888f19350505050158015610876573d6000803e3d6000fd5b50600360009054906101000a900473ffffffffffffffffffffffffffffffffffffffff1673ffffffffffffffffffffffffffffffffffffffff1663a9059cbb33836040518363ffffffff1660e01b8152600401808373ffffffffffffffffffffffffffffffffffffffff1673ffffffffffffffffffffffffffffffffffffffff16815260200182815260200192505050602060405180830381600087803b15801561092057600080fd5b505af1158015610934573d6000803e3d6000fd5b505050506040513d602081101561094a57600080fd5b810190808051906020019092919050505061096457600080fd5b7f0fbf06c058b90cb038a618f8c2acbf6145f8b3570fd1fa56abb8f0f3f05b36e8338383604051808473ffffffffffffffffffffffffffffffffffffffff1673ffffffffffffffffffffffffffffffffffffffff168152602001838152602001828152602001935050505060405180910390a1600073ffffffffffffffffffffffffffffffffffffffff163373ffffffffffffffffffffffffffffffffffffffff167fddf252ad1be2c89b69c2b068fc378daa952ba7f163c4a11628f55a4df523b3ef8a6040518082815260200191505060405180910390a3818195509550505050509250929050565b6040518060400160405280601f81526020017f4d6174656a53776170204c697175696469747920506f6f6c20546f6b656e730081525081565b6000610a9433848461197d565b6001905092915050565b60005481565b6000610b3582600260008773ffffffffffffffffffffffffffffffffffffffff1673ffffffffffffffffffffffffffffffffffffffff16815260200190815260200160002060003373ffffffffffffffffffffffffffffffffffffffff1673ffffffffffffffffffffffffffffffffffffffff16815260200190815260200160002054611a6890919063ffffffff16565b600260008673ffffffffffffffffffffffffffffffffffffffff1673ffffffffffffffffffffffffffffffffffffffff16815260200190815260200160002060003373ffffffffffffffffffffffffffffffffffffffff1673ffffffffffffffffffffffffffffffffffffffff16815260200190815260200160002081905550610bc0848484611a88565b600190509392505050565b601281565b600080610be760643461183d90919063ffffffff16565b90506000610bfe3447611a6890919063ffffffff16565b90506000600360009054906101000a900473ffffffffffffffffffffffffffffffffffffffff1673ffffffffffffffffffffffffffffffffffffffff166370a08231306040518263ffffffff1660e01b8152600401808273ffffffffffffffffffffffffffffffffffffffff1673ffffffffffffffffffffffffffffffffffffffff16815260200191505060206040518083038186803b158015610ca157600080fd5b505afa158015610cb5573d6000803e3d6000fd5b505050506040513d6020811015610ccb57600080fd5b810190808051906020019092919050505090506000610cf3828461180390919063ffffffff16565b90506000610d0a8547611a6890919063ffffffff16565b90506000610d21828461183d90919063ffffffff16565b90506000610d388286611a6890919063ffffffff16565b9050600360009054906101000a900473ffffffffffffffffffffffffffffffffffffffff1673ffffffffffffffffffffffffffffffffffffffff1663a9059cbb33836040518363ffffffff1660e01b8152600401808373ffffffffffffffffffffffffffffffffffffffff1673ffffffffffffffffffffffffffffffffffffffff16815260200182815260200192505050602060405180830381600087803b158015610de357600080fd5b505af1158015610df7573d6000803e3d6000fd5b505050506040513d6020811015610e0d57600080fd5b8101908080519060200190929190505050507fcd60aa75dea3072fbc07ae6d7d856b5dc5f4eee88854f5b4abf7b680ef8bc50f333483604051808473ffffffffffffffffffffffffffffffffffffffff1673ffffffffffffffffffffffffffffffffffffffff168152602001838152602001828152602001935050505060405180910390a18097505050505050505090565b60016020528060005260406000206000915090505481565b6040518060400160405280600b81526020017f4d6174656a537761704c5000000000000000000000000000000000000000000081525081565b6000610efd338484611a88565b6001905092915050565b600080610f1e60648561183d90919063ffffffff16565b905060004790506000600360009054906101000a900473ffffffffffffffffffffffffffffffffffffffff1673ffffffffffffffffffffffffffffffffffffffff166370a08231306040518263ffffffff1660e01b8152600401808273ffffffffffffffffffffffffffffffffffffffff1673ffffffffffffffffffffffffffffffffffffffff16815260200191505060206040518083038186803b158015610fc657600080fd5b505afa158015610fda573d6000803e3d6000fd5b505050506040513d6020811015610ff057600080fd5b810190808051906020019092919050505090506000611018828461180390919063ffffffff16565b9050600061111a8561110c8a600360009054906101000a900473ffffffffffffffffffffffffffffffffffffffff1673ffffffffffffffffffffffffffffffffffffffff166370a08231306040518263ffffffff1660e01b8152600401808273ffffffffffffffffffffffffffffffffffffffff1673ffffffffffffffffffffffffffffffffffffffff16815260200191505060206040518083038186803b1580156110c357600080fd5b505afa1580156110d7573d6000803e3d6000fd5b505050506040513d60208110156110ed57600080fd5b8101908080519060200190929190505050611c1c90919063ffffffff16565b611a6890919063ffffffff16565b90506000611131828461183d90919063ffffffff16565b905060006111488287611a6890919063ffffffff16565b9050600360009054906101000a900473ffffffffffffffffffffffffffffffffffffffff1673ffffffffffffffffffffffffffffffffffffffff166323b872dd33308d6040518463ffffffff1660e01b8152600401808473ffffffffffffffffffffffffffffffffffffffff1673ffffffffffffffffffffffffffffffffffffffff1681526020018373ffffffffffffffffffffffffffffffffffffffff1673ffffffffffffffffffffffffffffffffffffffff1681526020018281526020019350505050602060405180830381600087803b15801561122757600080fd5b505af115801561123b573d6000803e3d6000fd5b505050506040513d602081101561125157600080fd5b810190808051906020019092919050505061126b57600080fd5b8873ffffffffffffffffffffffffffffffffffffffff166108fc829081150290604051600060405180830381858888f193505050501580156112b1573d6000803e3d6000fd5b507f7f4091b46c33e918a0f3aa42307641d17bb67029427a5369e54b353984238705338b83604051808473ffffffffffffffffffffffffffffffffffffffff1673ffffffffffffffffffffffffffffffffffffffff168152602001838152602001828152602001935050505060405180910390a18097505050505050505092915050565b6002602052816000526040600020602052806000526040600020600091509150505481565b60008060005411156115bd576000341161137357600080fd5b60006113ae61138b3447611a6890919063ffffffff16565b6113a06000543461180390919063ffffffff16565b61183d90919063ffffffff16565b9050600360009054906101000a900473ffffffffffffffffffffffffffffffffffffffff1673ffffffffffffffffffffffffffffffffffffffff166323b872dd3330866040518463ffffffff1660e01b8152600401808473ffffffffffffffffffffffffffffffffffffffff1673ffffffffffffffffffffffffffffffffffffffff1681526020018373ffffffffffffffffffffffffffffffffffffffff1673ffffffffffffffffffffffffffffffffffffffff1681526020018281526020019350505050602060405180830381600087803b15801561148d57600080fd5b505af11580156114a1573d6000803e3d6000fd5b505050506040513d60208110156114b757600080fd5b81019080805190602001909291905050506114d157600080fd5b6114db3382611c3b565b7f06239653922ac7bea6aa2b19dc486b9361821d37712eb796adfd38d81de278ca333485604051808473ffffffffffffffffffffffffffffffffffffffff1673ffffffffffffffffffffffffffffffffffffffff168152602001838152602001828152602001935050505060405180910390a13373ffffffffffffffffffffffffffffffffffffffff16600073ffffffffffffffffffffffffffffffffffffffff167fddf252ad1be2c89b69c2b068fc378daa952ba7f163c4a11628f55a4df523b3ef836040518082815260200191505060405180910390a3809150506117d8565b600034116115ca57600080fd5b6000349050600360009054906101000a900473ffffffffffffffffffffffffffffffffffffffff1673ffffffffffffffffffffffffffffffffffffffff166323b872dd3330866040518463ffffffff1660e01b8152600401808473ffffffffffffffffffffffffffffffffffffffff1673ffffffffffffffffffffffffffffffffffffffff1681526020018373ffffffffffffffffffffffffffffffffffffffff1673ffffffffffffffffffffffffffffffffffffffff1681526020018281526020019350505050602060405180830381600087803b1580156116ac57600080fd5b505af11580156116c0573d6000803e3d6000fd5b505050506040513d60208110156116d657600080fd5b81019080805190602001909291905050506116f057600080fd5b6116fa3382611c3b565b7f06239653922ac7bea6aa2b19dc486b9361821d37712eb796adfd38d81de278ca333485604051808473ffffffffffffffffffffffffffffffffffffffff1673ffffffffffffffffffffffffffffffffffffffff168152602001838152602001828152602001935050505060405180910390a13373ffffffffffffffffffffffffffffffffffffffff16600073ffffffffffffffffffffffffffffffffffffffff167fddf252ad1be2c89b69c2b068fc378daa952ba7f163c4a11628f55a4df523b3ef836040518082815260200191505060405180910390a3809150505b919050565b600360009054906101000a900473ffffffffffffffffffffffffffffffffffffffff1681565b6000808314156118165760009050611837565b600082840290508284828161182757fe5b041461183257600080fd5b809150505b92915050565b600080821161184b57600080fd5b600082848161185657fe5b0490508091505092915050565b6118b581600160008573ffffffffffffffffffffffffffffffffffffffff1673ffffffffffffffffffffffffffffffffffffffff16815260200190815260200160002054611a6890919063ffffffff16565b600160008473ffffffffffffffffffffffffffffffffffffffff1673ffffffffffffffffffffffffffffffffffffffff1681526020019081526020016000208190555061190d81600054611a6890919063ffffffff16565b600081905550600073ffffffffffffffffffffffffffffffffffffffff168273ffffffffffffffffffffffffffffffffffffffff167fddf252ad1be2c89b69c2b068fc378daa952ba7f163c4a11628f55a4df523b3ef836040518082815260200191505060405180910390a35050565b80600260008573ffffffffffffffffffffffffffffffffffffffff1673ffffffffffffffffffffffffffffffffffffffff16815260200190815260200160002060008473ffffffffffffffffffffffffffffffffffffffff1673ffffffffffffffffffffffffffffffffffffffff168152602001908152602001600020819055508173ffffffffffffffffffffffffffffffffffffffff168373ffffffffffffffffffffffffffffffffffffffff167f8c5be1e5ebec7d5bd14f71427d1e84f3dd0314c0f7b2291e5b200ac8c7c3b925836040518082815260200191505060405180910390a3505050565b600082821115611a7757600080fd5b600082840390508091505092915050565b611ada81600160008673ffffffffffffffffffffffffffffffffffffffff1673ffffffffffffffffffffffffffffffffffffffff16815260200190815260200160002054611a6890919063ffffffff16565b600160008573ffffffffffffffffffffffffffffffffffffffff1673ffffffffffffffffffffffffffffffffffffffff16815260200190815260200160002081905550611b6f81600160008573ffffffffffffffffffffffffffffffffffffffff1673ffffffffffffffffffffffffffffffffffffffff16815260200190815260200160002054611c1c90919063ffffffff16565b600160008473ffffffffffffffffffffffffffffffffffffffff1673ffffffffffffffffffffffffffffffffffffffff168152602001908152602001600020819055508173ffffffffffffffffffffffffffffffffffffffff168373ffffffffffffffffffffffffffffffffffffffff167fddf252ad1be2c89b69c2b068fc378daa952ba7f163c4a11628f55a4df523b3ef836040518082815260200191505060405180910390a3505050565b600080828401905083811015611c3157600080fd5b8091505092915050565b611c5081600054611c1c90919063ffffffff16565b600081905550611ca881600160008573ffffffffffffffffffffffffffffffffffffffff1673ffffffffffffffffffffffffffffffffffffffff16815260200190815260200160002054611c1c90919063ffffffff16565b600160008473ffffffffffffffffffffffffffffffffffffffff1673ffffffffffffffffffffffffffffffffffffffff168152602001908152602001600020819055508173ffffffffffffffffffffffffffffffffffffffff16600073ffffffffffffffffffffffffffffffffffffffff167fddf252ad1be2c89b69c2b068fc378daa952ba7f163c4a11628f55a4df523b3ef836040518082815260200191505060405180910390a3505056fea264697066735822122020c683c8fda6bb35fa1c8b9c1a90dde699afa16fc4f46e3511854b12979a51a464736f6c63430006000033",
  "source": "// SPDX-License-Identifier: MIT\r\npragma solidity >=0.6.0 <0.9.0;\r\n\r\nimport \"./Math.sol\";\r\nimport \"../interface/IFesbToken.sol\";\r\nimport \"./MatejSwapLP.sol\";\r\n\r\ncontract MatejSwap is MatejSwapLP {\r\n    IFesbToken public FesbToken;\r\n\r\n    event TokenPurchase(address buyer, uint256 eth_sold, uint256 tokens_bought);\r\n    event EthPurchase(address buyer, uint256 tokens_sold, uint256 eth_bought);\r\n    event AddLiquidity(\r\n        address provider,\r\n        uint256 eth_amount,\r\n        uint256 token_amount\r\n    );\r\n    event RemoveLiquidity(\r\n        address provider,\r\n        uint256 eth_amount,\r\n        uint256 token_amount\r\n    );\r\n    event Received(address, uint256);\r\n\r\n    using SafeMath for uint256;\r\n\r\n    constructor(IFesbToken token) public {\r\n        FesbToken = token;\r\n    }\r\n\r\n    receive() external payable {\r\n        emit Received(msg.sender, msg.value);\r\n    }\r\n\r\n    function buyFesbTokens() public payable returns (uint256) {\r\n        uint256 fee = msg.value.div(100);\r\n        uint256 eth_pool = address(this).balance.sub(msg.value);\r\n        uint256 fesb_pool = FesbToken.balanceOf(address(this));\r\n        uint256 k = eth_pool.mul(fesb_pool);\r\n        uint256 new_eth_pool = address(this).balance.sub(fee);\r\n        uint256 new_fesb_pool = k.div(new_eth_pool);\r\n        uint256 amountReceived = fesb_pool.sub(new_fesb_pool);\r\n        FesbToken.transfer(msg.sender, amountReceived);\r\n        emit TokenPurchase(msg.sender, msg.value, amountReceived);\r\n        return amountReceived;\r\n    }\r\n\r\n    function sellFesbTokens(uint256 amountSent, address payable recipient)\r\n        public returns (uint256)\r\n    {\r\n        uint256 fee = amountSent.div(100);\r\n        uint256 eth_pool = address(this).balance;\r\n        uint256 fesb_pool = FesbToken.balanceOf(address(this));\r\n        uint256 k = eth_pool.mul(fesb_pool);\r\n        uint256 new_fesb_pool =\r\n            FesbToken.balanceOf(address(this)).add(amountSent).sub(fee);\r\n        uint256 new_eth_pool = k.div(new_fesb_pool);\r\n        uint256 amountReceived = eth_pool.sub(new_eth_pool);\r\n        require(FesbToken.transferFrom(msg.sender, address(this), amountSent));\r\n        recipient.transfer(amountReceived);\r\n        emit EthPurchase(msg.sender, amountSent, amountReceived);\r\n        return amountReceived;\r\n    }\r\n\r\n    function provideLiquidity(uint256 amountSent)\r\n        public\r\n        payable\r\n        returns (uint256)\r\n    {\r\n        if (totalSupply > 0) {\r\n            require(msg.value > 0);\r\n                uint256 amountOfLPTokens = msg.value.mul(totalSupply).div(address(this).balance.sub(msg.value));\r\n            require(\r\n                FesbToken.transferFrom(msg.sender, address(this), amountSent)\r\n            );\r\n            _mint(msg.sender, amountOfLPTokens);\r\n            emit AddLiquidity(msg.sender, msg.value, amountSent);\r\n            emit Transfer(address(0), msg.sender, amountOfLPTokens);\r\n            return amountOfLPTokens;\r\n        } else {\r\n            require(msg.value > 0);\r\n            uint256 amountOfLPTokens = msg.value;\r\n            require(\r\n                FesbToken.transferFrom(msg.sender, address(this), amountSent)\r\n            );\r\n            _mint(msg.sender, amountOfLPTokens);\r\n            emit AddLiquidity(msg.sender, msg.value, amountSent);\r\n            emit Transfer(address(0), msg.sender, amountOfLPTokens);\r\n            return amountOfLPTokens;\r\n        }\r\n    }\r\n\r\n    function removeLiquidity(uint256 amount, address payable recipient)\r\n        public\r\n        returns (uint256, uint256)\r\n    {\r\n        require(amount > 0);\r\n        uint256 total_liquidity = totalSupply;\r\n        require(total_liquidity > 0);\r\n        uint256 token_reserve = FesbToken.balanceOf(address(this));\r\n        uint256 eth_amount =\r\n            amount.mul(address(this).balance).div(total_liquidity);\r\n        uint256 token_amount = amount.mul(token_reserve).div(total_liquidity);\r\n\r\n        _burn(msg.sender, amount);\r\n        recipient.transfer(eth_amount);\r\n        require(FesbToken.transfer(msg.sender, token_amount));\r\n        emit RemoveLiquidity(msg.sender, eth_amount, token_amount);\r\n        emit Transfer(msg.sender, address(0), amount);\r\n        return (eth_amount, token_amount);\r\n    }\r\n}\r\n",
  "sourcePath": "C:\\Users\\datej\\OneDrive\\Desktop\\zavrsni\\DEX-ETH\\src\\contracts\\MatejSwap.sol",
  "compiler": {
    "name": "solc",
    "version": "0.6.0+commit.26b70077.Emscripten.clang"
  },
  "schemaVersion": "3.0.23",
  "updatedAt": "2021-05-07T10:32:46.931Z",
  "networkType": "ethereum",
  "devdoc": {
    "methods": {}
  },
  "userdoc": {
    "methods": {}
  }
}